:1000000078140020750600006106000063060000F9
:100010006506000067060000690600000000000099
:100020000000000000000000000000006B0600005F
:100030006D060000000000006F0600007106000061
:1000400073060000730600007306000073060000CC
:1000500073060000730600007306000073060000BC
:1000600073060000730600007306000073060000AC
:10007000730600007306000073060000730600009C
:10008000730600007306000073060000730600008C
:10009000730600007306000073060000730600007C
:1000A000730600007306000073060000730600006C
:1000B000730600007306000000000000000000004E
:1000C000730600007306000073060000730600004C
:1000D00073060000730600007306000000000000B5
:1000E0000000000000000000000000000000000010
:1000F0000000000000000000000000000000000000
:1001000000000000000000000000000000000000EF
:1001100000000000000000000000000000000000DF
:1001200000000000000000000000000000000000CF
:1001300000000000000000000000000000000000BF
:1001400000000000000000000000000000000000AF
:10015000000000000000000000000000000000009F
:10016000000000000000000000000000000000008F
:10017000000000000000000000000000000000007F
:10018000000000000000000000000000000000006F
:10019000000000000000000000000000000000005F
:1001A000000000000000000000000000000000004F
:1001B000000000000000000000000000000000003F
:1001C000000000000000000000000000000000002F
:1001D000000000000000000000000000000000001F
:1001E000000000000000000000000000000000000F
:1001F00000000000000000000000000000000000FF
:0402000000000000FA
:08020400780000000100000079
:10020C0010402DE928409FE50030D4E5000053E371
:10021C000500001A1C309FE5000053E318009F15E1
:10022C000000A0110130A0E30030C4E51040BDE88F
:10023C001EFF2FE13404002000000000000200002B
:10024C001C309FE5000053E31EFF2F0110402DE9E9
:10025C0010109FE510009FE50000A0E11040BDE8E4
:10026C001EFF2FE1000000003804002000020000F7
:10027C0000400FE10F0014E31C00000A0D30A0E158
:10028C00D110A0E301F021E103D0A0E101AA4DE2DD
:10029C000A30A0E1D710A0E301F021E103D0A0E1E6
:1002AC00013A43E2DB10A0E301F021E103D0A0E12D
:1002BC00013A43E2D210A0E301F021E103D0A0E126
:1002CC00023A43E2D310A0E301F021E103D0A0E114
:1002DC00023943E2FF30C3E3FF3CC3E3DF10A0E38A
:1002EC0001F021E103D0A0E1C04084E304F021E15E
:1002FC0001A843E21EFF2FE194309FE5000053E379
:10030C0080309F0503D0A0E1D8FFFFEB0010B0E3D5
:10031C0001B0A0E10170A0E178009FE578209FE595
:10032C00002052E01D0100EB5C309FE5000053E320
:10033C000100000A0FE0A0E103F0A0E14C309FE5C2
:10034C00000053E30100000A0FE0A0E103F0A0E17C
:10035C000000B0E30010B0E30040B0E10150B0E1A8
:10036C0038009FE5000050E30100000A30009FE5D3
:10037C00A90100EBE70000EB0400B0E10510B0E1CF
:10038C00680000FAD60000EB000008000000000036
:10039C00000000000000000034040020780400205D
:1003AC00280A0000480A000080B483B000AF7860CF
:1003BC004FF0A04318460C37BD4680BC704780B543
:1003CC0084B000AF7860084611461A460346FB70AD
:1003DC000B46BB7013467B703B1D1846FFF7E4FFC2
:1003EC00F860FA78BB785B001A437B789B001A4361
:1003FC003B7E1B0242EA03013B7F1B047A681943D4
:10040C00FB6802F5E07243F8221000BF1037BD46BE
:10041C0080BD80B584B002AF7860002301930023C7
:10042C0000930023012201217868FFF7C8FF00BF69
:10043C000837BD4680BD80B584B000AF78603B1DE9
:10044C001846FFF7B1FFF8607B68012202FA03F34C
:10045C001946F86800F019F800BF1037BD4680BD8A
:10046C0080B584B000AF78603B1D1846FFF79CFF49
:10047C00F8607B68012202FA03F31946F86800F071
:10048C0012F800BF1037BD4680BD80B483B000AFFA
:10049C00786039607B683A68C3F8082500BF0C3770
:1004AC00BD4680BC704780B483B000AF78603960C3
:1004BC007B683A68C3F80C2500BF0C37BD4680BC7E
:1004CC00704780B400AF0B4B0622C3F80C25094BC8
:1004DC000822C3F81425074B074AC3F82425054BFB
:1004EC000422C3F80025034B01221A6000BFBD464D
:1004FC0080BC70470020004000E0D70180B400AF02
:10050C0000BF084BD3F80831002BFAD0054B002262
:10051C00C3F80821034BD3F81835DBB21846BD4697
:10052C0080BC70470020004080B582B000AF18201E
:10053C00FFF76FFF1820FFF793FFFFF7C2FFFFF7DE
:10054C00DDFF0346FB71FB79312B03D11820FFF73C
:10055C0072FFF4E71820FFF783FFF0E780B483B055
:10056C0000AF78604FF0FF3318460C37BD4680BCA7
:10057C00704780B483B000AF786039603B684FF44B
:10058C0000525A60002318460C37BD4680BC704799
:10059C0080B483B000AF7860012318460C37BD4699
:1005AC0080BC704780B485B000AFF860B9607A60E9
:1005BC00002318461437BD4680BC704780B485B004
:1005CC0000AFF860B9607A60002318461437BD4656
:1005DC0080BC704780B485B000AFF860B9607A60B9
:1005EC007B6818461437BD4680BC704780B584B014
:1005FC0000AF7860114B1B68002B02D10F4B104AD7
:10060C001A600E4B1B68FB600C4B1A687B6813441A
:10061C000C4A934207D900F05DF803460C221A608D
:10062C004FF0FF3306E0054B1A687B681344034A0E
:10063C001360FB6818461037BD4680BD500400207F
:10064C00000000000010000080B483B000AF7860A0
:10065C00FEE700BFFEE7FEE7FEE7FEE7FEE7FEE78C
:10066C00FEE7FEE7FEE7FEE711484FF400310160BC
:10067C00104801609142BEBF50F8043B41F8043B66
:10068C00F8E70D490D4A9142BCBF002341F8043BE9
:10069C00F9DBFFF749FF0A490A4A074B9B1A03DDAE
:1006AC00043BC858D050FBDC00F00EF8FFF724FEDA
:1006BC001405005008050050340400207804002074
:1006CC00000C00000000002080B400AF00BFBD464D
:1006DC0080BC704704309FE5000093E51EFF2FE1BE
:1006EC000400002010402DE90010A0E30040A0E120
:1006FC007B0000EB18309FE5000093E53C3090E563
:10070C00000053E30FE0A01113FF2F110400A0E130
:10071C00CCFFFFFAD80B000070402DE96C609FE510
:10072C006C509FE5056046E04661B0E10700000AA9
:10073C000040A0E3045045E20430B5E5014084E2FA
:10074C000FE0A0E113FF2FE1040056E1F9FFFF1ABF
:10075C0040609FE540509FE5056046E0020100EBDC
:10076C004661B0E10700000A0040A0E3045045E2F6
:10077C000430B5E5014084E20FE0A0E113FF2FE166
:10078C00040056E1F9FFFF1A7040BDE81EFF2FE18F
:10079C00000000000000000000000000000000004D
:1007AC00030010E34000000A000052E3012042E283
:1007BC001EFF2F010030A0E1FFC001E2020000EAA1
:1007CC00012042E2010072E31EFF2F0101C0C3E4CD
:1007DC00030013E3F9FFFF1A030052E32800009A09
:1007EC0030402DE9FFE001E20EE48EE10F0052E310
:1007FC000EE88EE12E00009A10C042E20F40CCE3CE
:10080C00205083E2045085E02C42A0E110C083E22A
:10081C0010E00CE50CE00CE508E00CE504E00CE560
:10082C0010C08CE205005CE1F8FFFF1A01C084E205
:10083C000C0012E30CC283E00F2002E21800000A45
:10084C00043042E20330C3E3043083E203308CE033
:10085C0004E08CE40C0053E1FCFFFF1A032002E2DD
:10086C00000052E30400000AFF1001E2022083E0C2
:10087C000110C3E4030052E1FCFFFF1A3040BDE855
:10088C001EFF2FE1000052E31EFF2F01FF1001E2BB
:10089C00022083E00110C3E4030052E1FCFFFF1AC5
:1008AC001EFF2FE10C30A0E1ECFFFFEA0030A0E1CD
:1008BC00C8FFFFEA03C0A0E1E0FFFFEA18309FE5A4
:1008CC00000053E31EFF2F0110402DE90C009FE5A3
:1008DC00510000EB1040BDE81EFF2FE100000000AE
:1008EC00480A0000F04F2DE900B0A0E120319FE54F
:1008FC000CD04DE2000093E50170A0E104B08DE551
:10090C00630000EB0C319FE5008093E5486198E5AE
:10091C00000056E32800000A0190A0E300A0A0E329
:10092C00044096E5015054E22300004A014084E261
:10093C00044186E0030000EA015045E2010075E342
:10094C00044044E21C00000A000057E30200000AC5
:10095C00003194E5070053E1F6FFFF1A043096E5E9
:10096C00002094E5013043E2050053E10450860574
:10097C0000A08415000052E3EEFFFF0A883196E5D3
:10098C001915A0E1030011E104B096E51000001A5E
:10099C000FE0A0E112FF2FE1042096E50B0052E1DD
:1009AC001500001A483198E5060053E1E1FFFF0AF3
:1009BC000360A0E1000056E3D8FFFF1A50309FE51A
:1009CC00000093E5380000EB0CD08DE2F04FBDE851
:1009DC001EFF2FE18C0196E5000011E10800001AC2
:1009EC0004009DE5801094E50FE0A0E112FF2FE1DB
:1009FC00042096E50B0052E1E9FFFF0A486198E5F7
:100A0C00EBFFFFEA800094E50FE0A0E112FF2FE17D
:100A1C00E0FFFFEA30040020D80B00000030A0E318
:100A2C0010402DE90010A0E10320A0E10300A0E19B
:100A3C001E0000EB1040BDE81EFF2FE170402DE9B9
:100A4C0030509FE530409FE5044045E04441B0E123
:100A5C000500000A043035E5014044E20FE0A0E156
:100A6C0013FF2FE1000054E3F9FFFF1A460000EBDF
:100A7C007040BDE81EFF2FE10000000000000000E8
:100A8C001EFF2FE11EFF2FE11EFF2FE11EFF2FE1A6
:100A9C001EFF2FE11EFF2FE10100A0E31EFF2FE13F
:100AAC000100A0E31EFF2FE11EFF2FE11EFF2FE12F
:100ABC00F0412DE9A8809FE50040A0E1000098E5F9
:100ACC000360A0E10150A0E10270A0E1F0FFFFEB98
:100ADC0090309FE5003093E548C193E500005CE35E
:100AEC0053CF830204E09CE548C183051F005EE3FD
:100AFC00170000CA000054E30800001A01308EE20F
:100B0C0002E08EE204308CE5000098E50E518CE793
:100B1C00E5FFFFEB0000A0E3F041BDE81EFF2FE175
:100B2C000130A0E30E118CE0887081E588219CE5F2
:100B3C00133EA0E1032082E188218CE5086181E568
:100B4C00020054E38C219C05033082018C318C050E
:100B5C00E9FFFFEA000098E5D3FFFFEB0000E0E3BC
:100B6C00ECFFFFEA30040020D80B00000DC0A0E120
:100B7C00F8DF2DE904B04CE24C020000C80800007C
:100B8C0028D04BE2F06F9DE81EFF2FE10DC0A0E1D5
:100B9C00F8DF2DE904B04CE20C02000028D04BE247
:100BAC00F06F9DE81EFF2FE13B3E0B3E103E253EB5
:100BBC00333E033E063E143E0E3E0D3E243E123E98
:100BCC00273E023E183E093E0A3E00000800002067
:100BDC003B3E0B3E103E253E333E033E063E143E4E
:100BEC000E3E0D3E243E123E273E023E183E093E6E
:040BFC000A3E0000AD
:100C0000000000000800002000000000F4020020A6
:100C10005C030020C403002000000000000000006E
:100C200000000000000000000000000000000000C4
:100C300000000000000000000000000000000000B4
:100C400000000000000000000000000000000000A4
:100C50000000000000000000000000000000000094
:100C60000000000000000000000000000000000084
:100C70000000000000000000000000000000000074
:100C80000000000000000000000000000000000064
:100C90000000000000000000000000000000000054
:100CA0000000000000000000000000000000000044
:100CB00001000000000000000E33CDAB34126DE6E1
:100CC000ECDE05000B00000000000000000000004A
:100CD0000000000000000000000000000000000014
:100CE0000000000000000000000000000000000004
:100CF00000000000000000000000000000000000F4
:100D000000000000000000000000000000000000E3
:041030005C0400203C
:04000003000006757E
:00000001FF
